:020000040800F2
:1000000000000820794B0008C94B0008C94B0008C4
:10001000C94B0008C94B0008C94B0008000000008C
:10002000000000000000000000000000C94B0008B4
:10003000C94B000800000000C94B0008DD4600085D
:10004000C94B0008C94B0008C94B0008C94B000840
:10005000C94B0008C94B0008C94B0008C94B000830
:10006000C94B0008C94B0008C94B0008C94B000820
:10007000C94B0008C94B0008C94B0008C94B000810
:10008000C94B0008C94B0008C94B0008C94B000800
:10009000C94B0008C94B0008C94B0008C94B0008F0
:1000A000C94B0008C94B0008C94B0008C94B0008E0
:1000B000094700081D470008C94B0008C94B000844
:1000C000C94B0008C94B0008C94B0008C94B0008C0
:1000D000C94B0008C94B0008C94B0008C94B0008B0
:1000E000C94B0008C94B0008C94B0008C94B0008A0
:1000F000C94B0008C94B0008C94B0008C94B000890
:10010000C94B0008C94B0008C94B0008C94B00087F
:10011000C94B0008C94B0008C94B0008C94B00086F
:10012000C94B0008C94B0008C94B000831470008FB
:100130003D470008C94B0008C94B0008C94B0008DF
:10014000C94B0008C94B0008C94B0008C94B00083F
:10015000C94B0008C94B0008C94B0008C94B00082F
:10016000C94B0008C94B0008C94B0008C94B00081F
:10017000C94B0008C94B0008C94B0008000000002B
:10018000C94B0008C94B0008C94B0008C94B0008FF
:10019000C94B0008ED460008C94B0008C94B0008D0
:1001A000C94B0008C94B0008C94B0008C94B0008DF
:1001B000C94B0008C94B0008C94B0008C94B0008CF
:1001C000C94B0008C94B000800000000C94B0008DB
:1001D000C94B0008C94B0008C94B0008C94B0008AF
:1001E000C94B0008C94B0008C94B0008C94B00089F
:0801F000C94B0008C94B0008CF
:1002000010B5054C237833B9044B13B10448AFF350
:1002100000800123237010BD280200200000000090
:10022000BC91000808B5034B1BB103490348AFF369
:10023000008008BD000000002C020020BC910008D6
:10024000034613F8012B002AFBD1181A0138704716
:1002500001F0FF01102A2BDB10F0070F08D010F877
:10026000013B013A8B422DD010F0070F42B3F6D17B
:10027000F0B441EA012141EA014122F007047FF094
:1002800000070023F0E80256083C85EA010586EAEB
:10029000010685FA47F5A3FA87F586FA47F6A5FA27
:1002A00087F68EB9EED1F0BC01F0FF0102F0070233
:1002B00032B110F8013B013A83EA010313B1F8D1DE
:1002C0000020704701387047002D06BF35460338BF
:1002D000073815F0010F07D1013015F4807F02BFF8
:1002E000013015F4C03F0130F0BC0138704700BF49
:1002F00053B94AB9002908BF00281CBF4FF0FF318D
:100300004FF0FF3000F07AB9ADF1080C6DE904CE82
:1003100000F006F8DDF804E0DDE9022304B07047E0
:100320002DE9F0478C460D460446089E002B51D11E
:100330008A4217466DD9B2FA82FEBEF1000F0BD089
:10034000CEF1200C01FA0EF520FA0CFC02FA0EF7A1
:100350004CEA050C00FA0EF44FEA174A250CBCFBD8
:10036000FAF81FFA87F90AFB18CC45EA0C4508FB96
:1003700009F3AB420AD9ED1908F1FF3280F023816D
:10038000AB4240F22081A8F102083D44ED1AA4B22C
:10039000B5FBFAF00AFB105544EA054400FB09F9E5
:1003A000A14509D9E41900F1FF3380F00A81A14584
:1003B00040F2078102383C44A4EB090440EA0840BB
:1003C0000021002E61D024FA0EF400233460736003
:1003D000BDE8F0878B4207D9002E54D0002186E873
:1003E00021000846BDE8F087B3FA83F1002940F008
:1003F0008E80AB4202D3824200F2FA80841A65EB0F
:1004000003050120AC46002E3FD086E81010BDE861
:10041000F08712B90127B7FBF2F7B7FA87FEBEF1F2
:10042000000F34D1EB1B3A0C1FFA87FC0121B3FB00
:10043000F2F8250C02FB183345EA03450CFB08F3E0
:10044000AB4207D9ED1908F1FF3002D2AB4200F2FE
:10045000D1808046ED1AA3B2B5FBF2F002FB105535
:1004600043EA05440CFB00FCA44507D9E41900F15C
:10047000FF3302D2A44500F2B8801846A4EB0C0466
:1004800040EA08409DE731463046BDE8F087CEF1AE
:10049000200405FA0EF307FA0EF720FA04F83A0CD6
:1004A00025FA04F448EA0308B4FBF2F14FEA1845D0
:1004B00002FB11441FFA87FC45EA044501FB0CF3DB
:1004C000AB4200FA0EF409D9ED1901F1FF3080F0CA
:1004D0008A80AB4240F2878002393D44EB1A1FFA12
:1004E00088F5B3FBF2F002FB103345EA034500FB4D
:1004F0000CF3AB4207D9ED1900F1FF386FD2AB42D4
:100500006DD902383D44EB1A40EA01418FE7C1F151
:10051000200722FA07F88B4005FA01F448EA0303A2
:1005200020FA07FE4FEA134CFD404EEA040EB5FBDD
:10053000FCF94FEA1E440CFB19551FFA83F844EAF4
:10054000054509FB08F4AC4202FA01F200FA01FA8F
:1005500008D9ED1809F1FF3043D2AC4241D9A9F1D5
:1005600002091D442D1B1FFA8EFEB5FBFCF00CFB8F
:1005700010554EEA054400FB08F8A04507D9E418D9
:1005800000F1FF3529D2A04527D902381C4440EAA2
:100590000940A4EB0804A0FB02894C45C6464D4621
:1005A00015D312D056B1BAEB0E0364EB050404FA6E
:1005B00007F7CB401F43CC40376074600021BDE893
:1005C000F0871846F8E69046E0E6C245EAD2B8EB76
:1005D000020E69EB03050138E4E72846D7E74046F9
:1005E00091E78146BEE7014678E702383C4445E79B
:1005F000084608E7A8F102083D442BE7704700BF12
:1006000038B50E4B05460E4A18784FF47A73B3FB93
:10061000F0F31068B0FBF3F000F09CF8044658B912
:100620000F2D09D8024629464FF0FF3000F04EF852
:10063000044B20461D6038BD012038BD000000205D
:10064000200000200400002008B5032000F02CF852
:100650000020FFF7D5FF03F011FF002008BD0000C8
:10066000034A044B11681B780B441360704700BFAA
:100670005402002000000020014B1868704700BFA2
:100680005402002038B50446FFF7F6FF0546631C08
:100690001EBF044B1B78E418FFF7EEFF401B84429B
:1006A000FAD838BD00000020074A0002D36800F4E1
:1006B000E06023F4E0631B041B0C43F0BF6343F4CE
:1006C00000330343D360704700ED00E0194B30B5B1
:1006D000DC68C4F30224C4F10703251D042B28BFE2
:1006E0000423062D4FF001058CBF033C002405FABE
:1006F00003F3002803F1FF3301EA030101FA04F1D7
:1007000005FA04F404F1FF3402EA040242EA0102A9
:100710004FEA021205DA00F00F00D2B2064B1A546B
:1007200030BD00F16040D2B200F5614080F8002396
:1007300030BD00BF00ED00E014ED00E042090123F0
:1007400000F01F0003FA00F0014B43F8220070474D
:1007500000E100E00138B0F1807F0AD2064BF021C1
:10076000064A5860002082F82310072298601A6019
:1007700070470120704700BF10E000E000ED00E08E
:10078000044B04281A680CBF42F0040222F0040251
:100790001A60704710E000E0704708B5FFF7FCFFF3
:1007A00008BD000003681821DAB223F47F73103A01
:1007B00023F00303B2FBF1F20449032A895C88BFEA
:1007C0000433C1658365806D704700BFD891000810
:1007D00070B50446FFF750FF0546002C71D000238A
:1007E000226884F83430022384F83530136823F00B
:1007F0000103136021680B68D8073CD40B68324DA5
:1008000062681D40A368A0691343E268134322692C
:10081000134362691343E26903431343226A134398
:10082000626A042A43EA050301BF266BE56A354381
:100830002B43042A0B604B6923F0070343EA0203AE
:100840000BD1A26AE56A13433DB1F8B9012A2DD054
:1008500001D3022A01D1EA012BD44B612046FFF7D4
:10086000A1FFE26D3F239340836000200123606578
:1008700084F8353070BDFFF7FFFE401B0528B9D95D
:1008800020230320636584F8350070BDB0F5005F58
:1008900013D1032AE1D801A050F822F0B3080008D0
:1008A00057080008B3080008AD080008B5F1C07F7C
:1008B000D3D1402301206365E5E7022AF9D9032A51
:1008C000C8E7012070BD00BF3F8010E090F83530D0
:1008D000022B03D080234365012070470268052363
:1008E00080F835300020136823F00103136070474F
:1008F0000023F7B501930822594B0446856D1F6804
:10090000C36D2E689A4016420CD0016808684007F3
:1009100008D5086820F004000860AA60626D42F003
:100920000102626501229A40164208D02168496995
:10093000090604D5AA60626D42F0020262650422D3
:100940009A40164208D021680968880704D5AA6031
:10095000626D42F00402626510229A40164210D085
:100960002368196809070CD5AA601A68500335D5A1
:100970001B68190301D4236C00E0A36C0BB1204663
:100980009847E16D20228A40164238D023681868C3
:10099000C60634D5AA6094F83520052A1A6825D1F0
:1009A00022F016021A605A6922F080025A61226C03
:1009B0000AB9A26C1AB11A6822F008021A603F2321
:1009C0008B40AB60002384F83430012384F8353049
:1009D000236D0BB12046984703B0F0BD1A68D205CD
:1009E000C9D41A6822F008021A60C4E7500328D557
:1009F0001B68190332D4636C0BB120469847636DB2
:100A0000002BE9D0636DDA0719D50523226884F835
:100A10003530136823F0010313604FF41653B7FB0E
:100A2000F3F7019B01339F42019302D31368DB0765
:100A3000F7D4002384F83430012384F83530E36C94
:100A4000C7E71A6812F4807208D1196821F0100102
:100A50001960012384F8342084F83530E36BCBE748
:100A6000200000202DE9F04F0B6885B0DFF8C08131
:100A7000019300236C4ADFF8BC914FF0010E019CFA
:100A80000EFA03FE0EEA0406B64540F0B3804C6849
:100A900024F01007022F16D14FEAD30A03F0070BF8
:100AA0004FF00F0C00EB8A0A4FEA8B0BDAF820505C
:100AB0000CFA0BFC25EA0C0C0D6905FA0BF545EA5E
:100AC0000C05CAF820504FEA430A0325D0F800B0BD
:100AD00004F0030C05FA0AF5013F0CFA0AFCED4399
:100AE000012F0BEA050B4CEA0B0CC0F800C011D823
:100AF000876807EA050BCF6807FA0AFC4CEA0B0780
:100B00008760476827EA0E0EC4F300179F4047EA44
:100B10000E074760C7683D408F6807FA0AF73D43F4
:100B2000C560E50066D5D8F8445023F0030703F00C
:100B3000030E4FF00F0C45F4804507F180474FEA54
:100B40008E0EC8F8445007F59C37D8F8445005F489
:100B500080450395039D0CFA0EF5D7F808A02AEA04
:100B6000050C324DA8424CD005F58065A8424AD00C
:100B700005F58065A84248D005F58065A84246D0B5
:100B800005F58065A84244D0484544D005F5006588
:100B9000A84242D005F58065A84240D005F58065A1
:100BA000A8423ED005F58065A84214BF0A25092554
:100BB00005FA0EF514F4803F45EA0C05BD606FEAB6
:100BC000060715680CBF3D40354314F4003F15601F
:100BD00055680CBF3D40354314F4801F556095683F
:100BE0000CBF3D403543A4029560D56854BF3D40DD
:100BF0003543D5600133102B7FF43FAF05B0BDE81E
:100C0000F08F0025D4E70125D2E70225D0E70325A0
:100C1000CEE70425CCE70525CAE70625C8E7072562
:100C2000C6E70825C4E700BF003C014000000240C1
:100C300000380240001402400369194214BF012029
:100C4000002070470AB1816170470904FBE700008A
:100C5000024A136843F480731360704700700040C9
:100C600038B50C4C636843F400736360636843F405
:100C700080736360FFF700FD054663681B0701D5BD
:100C8000002038BDFFF7F8FC401BB0F57A7FF4D99F
:100C9000032038BD00700040194B37B51A6C194C51
:100CA00042F080521A641B6C03F080530193019B45
:100CB000236843F480332360FFF7DEFC0546636856
:100CC000DA030CD5236843F400332360FFF7D4FC28
:100CD0000C4C054663689B030AD5002006E0FFF72D
:100CE000CBFC401BB0F57A7FE9D9032003B030BDBF
:100CF000FFF7C2FC401BB0F57A7FEBD9F5E700BFE8
:100D000000380240007000402DE9F341044618B954
:100D1000012002B0BDE8F0810368D80710D4236831
:100D200099075ED42368190700F1A38023685A0746
:100D300000F1C480A269002A40F02E810020E8E77B
:100D4000934B9A6802F00C02042A07D09A6802F0CA
:100D50000C02082A0AD15B685A0207D58C4B1B6823
:100D60009B03DCD56368002BD9D1D1E76368884D3C
:100D7000B3F5803F11D12B6843F480332B60FFF72C
:100D80007BFC834D06462B689F03C8D4FFF774FC99
:100D9000801B6428F7D90320BBE79BB92B6823F499
:100DA00080332B602B6823F480232B60FFF764FCD7
:100DB00006462B689803B2D5FFF75EFC801B6428BB
:100DC000F7D9E8E7B3F5A02F2B6803D143F48023CC
:100DD0002B60D0E723F480332B602B6823F480232F
:100DE000CCE76B4B9A6812F00C0F07D09A6802F0B0
:100DF0000C02082A11D15B6859020ED4644B1A68A0
:100E0000920702D5E268012A82D11A68216922F08C
:100E1000F80242EAC1021A6084E7E3685C4DBBB1A4
:100E20002B6843F001032B60FFF726FC06462B6876
:100E30009F0707D52B68226923F0F80343EAC20312
:100E40002B606FE7FFF718FC801B0228EFD9A2E7A1
:100E50002B6823F001032B60FFF70EFC06462B687E
:100E600098077FF55FAFFFF707FC801B0228F6D9D4
:100E700091E76369464D83B16B6F43F001036B6784
:100E8000FFF7FAFB06466B6F9B073FF54FAFFFF787
:100E9000F3FB801B0228F6D97DE76B6F23F001037B
:100EA0006B67FFF7E9FB06466B6F9F077FF53EAF69
:100EB000FFF7E2FB801B0228F6D96CE7344B1A6C73
:100EC000D00027D41A6C012642F080521A641B6CA1
:100ED00003F080530193019B2E4D2B68D9051BD540
:100EE000A3682B4D012B27D12B6F43F001032B67F8
:100EF00041F28835FFF7C0FB254F80463B6F9B07CB
:100F00003FD5002E3FF416AF214A136C23F08053D7
:100F100013640FE70026DFE72B6843F480732B6030
:100F2000FFF7AAFB07462B68DA05D9D4FFF7A4FB25
:100F3000C01B6428F7D92EE7ABB92B6F41F2883874
:100F400023F001032B672B6F23F004032B67FFF7BC
:100F500093FB07462B6F9807D3D5FFF78DFBC01B7C
:100F60004045F7D917E7052B2B6F03D143F0040356
:100F70002B67B9E723F001032B672B6F23F00403E2
:100F8000B5E7FFF779FBA0EB0800A842B6D902E766
:100F90000038024000700040244DAB6803F00C03A1
:100FA000082B3FF4B5AE2B68022A23F080732B6028
:100FB0002FD1FFF761FB06462B68990123D4226AE3
:100FC000E3691343626A43EA8213E26A43EA026313
:100FD000226B43EA0273A26A144C5208013A43EAB4
:100FE00002436B602B6843F080732B60FFF744FB78
:100FF000054623689A013FF5A1AEFFF73DFB401B74
:101000000228F6D9C7E6FFF737FB801B0228D3D9A1
:10101000C1E6FFF731FB04462B689B017FF58EAEDE
:10102000FFF72AFB001B0228F6D9B4E6003802407D
:10103000134908B58B6803F00C03042B03D0082B6D
:1010400003D0104808BD104808BD4A684B6849687D
:1010500002F03F0213F48003C1F388111ABF0A485B
:1010600000230848A1FB0001FFF742F9044B5B682D
:10107000C3F3014301335B00B0FBF3F008BD00BFD5
:10108000003802400024F40000127A002DE9F041FB
:101090000D46044610B90120BDE8F081464A1368A8
:1010A00003F00F038B4228D321688F0730D4C80781
:1010B00043D4414A136803F00F039D4267D322686B
:1010C000510770D4130707D53C4A2169936823F46C
:1010D000604343EAC1039360FFF7AAFF374B384AE6
:1010E0009B68C3F30313D35CD840364B18600020D1
:1010F000FFF786FA0020BDE8F081136823F00F03A4
:101100000B431360136803F00F039942C3D1CBE77D
:1011100011F0040F294B03D09A6842F4E0529A6010
:101120000E0703D59A6842F460429A609A68A068F4
:1011300022F0F00202439A60B9E761681F4B01296F
:101140001A681CD112F4003FA5D09A6841F2883881
:101150001A4E22F003020A439A60FFF78DFA0746FF
:10116000B368626803F00C03B3EB820FA1D0FFF702
:1011700083FAC01B4045F3D90320BDE8F081022962
:1011800002D112F0007FDFE712F0020FDCE71368F4
:1011900023F00F032B431360136803F00F039D42EA
:1011A0007FF479AF8BE70549E0688B6823F4E0535F
:1011B00003438B6086E700BF003C024000380240DA
:1011C0003496000820000020014B1868704700BFCB
:1011D000200000202DE9F7430268044612F00106C2
:1011E0000BD0BA4B996821F400019960466B99685D
:1011F0003143B6FA86F67609996012F4002512D0CA
:10120000B249E56BD1F88C30B5F5801F23F440135B
:1012100008BF012643EA050316BFB5FA85F5002588
:101220006D09C1F88C30D70210D5A848216CD0F8D0
:101230008C30B1F5800F23F4400343EA0103C0F87A
:101240008C3000F0A981002908BF012512F0807FB1
:1012500018BF0126900631D59C4B9D4F1A6C42F069
:1012600080521A641B6C03F080530193019B3B680E
:1012700043F480733B60FFF7FFF980463B68D90574
:1012800040F18C81914F3B6F13F4407340F091819A
:10129000236B03F44072B2F5407F8C4A40F0AF817B
:1012A000916823F0704021F4F81120F4407001435C
:1012B0009160C3F30B03116F0B4313672368DF06C1
:1012C0000CD5824AD2F88C1021F08071C2F88C10B3
:1012D000D2F88C10A06B0143C2F88C10580408D5CA
:1012E0007A49606ED1F8902022F440320243C1F86E
:1012F0009020190408D57549A06ED1F8902022F4E9
:1013000040220243C1F89020DA0308D56F49E06E0D
:10131000D1F8902022F440120243C1F890209F039C
:1013200008D56A49206FD1F8902022F44002024388
:10133000C1F89020580608D56449606CD1F8902017
:1013400022F003020243C1F89020190608D55F4934
:10135000A06CD1F8902022F00C020243C1F890203A
:10136000DA0508D55949E06CD1F8902022F0300216
:101370000243C1F890209F0508D55449206DD1F84B
:10138000902022F0C0020243C1F89020580508D5F1
:101390004E49606DD1F8902022F440720243C1F8AA
:1013A0009020190508D54949A06DD1F8902022F464
:1013B00040620243C1F89020DA0408D54349E06D49
:1013C000D1F8902022F440520243C1F890209F04AB
:1013D00008D53E49206ED1F8902022F440420243C5
:1013E000C1F89020580208D53849A06FD1F8902054
:1013F00022F080620243C1F8902099020CD5334854
:10140000E16FD0F89020B1F1006F22F0006208BFC8
:1014100001250A43C0F8902013F0080F18BF0125DA
:101420005A0308D52949606FD1F8902022F0407204
:101430000243C1F890201F0209D52449D4F8800046
:10144000D1F8902022F080520243C1F89020580138
:1014500009D51E49D4F88400D1F8902022F000521A
:101460000243C1F89020190109D51849D4F8880021
:10147000D1F88C2022F000720243C1F88C20DA00EF
:1014800009D51249D4F88C00D1F88C2022F0806262
:101490000243C1F88C20012E00F0B580B3F1007F2B
:1014A00000F0B180012D75D1084D2B6823F08053D9
:1014B0002B60FFF7E1F806462B689F0000F12781BB
:1014C00021680E0306D5E36B43B103E00038024008
:1014D00000700040CD021DD5236CDBB9934AD2F8D1
:1014E0008830D2F8880003F4403300F0E040034332
:1014F000606943EA8013A06943EA0063C2F8883058
:10150000D2F88C30A06A23F4F853013843EA002360
:10151000C2F88C30880215D5E36FB3F1006F11D19A
:10152000824AD2F88830D2F8880003F0706300F065
:10153000E0400343606943EA8013206A43EA0043C2
:10154000C2F888300A0719D57849D1F88820D1F82F
:10155000883002F0706203F440331343626943EA57
:101560008213E26943EA0273C1F88830D1F88C3003
:10157000E26A23F440331343C1F88C306B4C236888
:1015800043F080532360FFF777F8054623689B00FC
:1015900040F1C480002009E0012657E6FFF76CF80F
:1015A000A0EB080064287FF669AE032003B0BDE815
:1015B000F083226B02F4407293423FF469AE3B6FBA
:1015C0003A6F23F4407342F480323A673A6F22F460
:1015D00080323A673B673B6FDA077FF559AEFFF71A
:1015E0004BF841F2883980463B6F9B073FF550AE80
:1015F000FFF742F8A0EB08004845F5D9D5E7916818
:1016000021F4F81154E6494E336823F080633360C7
:10161000FFF732F8074633681B0172D42268D707F8
:1016200012D5636B83B9D6F88430D6F8841003F4EE
:10163000403301F070610B43616843EA8113A16894
:1016400043EA0173C6F88430160303D5E36BB3F5A0
:10165000801F05D0D0021ED5236CB3F5800F1AD1A0
:101660003249D1F88430D1F8840003F4403300F0DB
:10167000E0400343606843EA8013E06843EA0063A4
:10168000C1F88430D1F88C00636A20F01F00013B60
:101690000343C1F88C30D10111D52449D1F88430ED
:1016A000D1F8840003F0706300F0E0400343606809
:1016B00043EA8013206943EA0043C1F88430920171
:1016C0000DD5236962681B0443EA8213E26843EA8A
:1016D0000263A26843EA0273144AC2F88430134ECC
:1016E000336843F080633360FEF7C6FF0746336814
:1016F0001B013FF5D7AEFEF7BFFFC01B6428F6D92C
:1017000053E7FEF7B9FFC01B642884D94DE7FEF705
:10171000B3FF801B64287FF6CFAE46E7FEF7ACFF31
:10172000401B64287FF632AF3FE700BF003802401D
:1017300003685A6822F0E0025A604268B2F5827F7C
:101740000AD18268B2F5004F02D0B2F5806F03D1A2
:101750001A6822F040021A60826AB2F5005F09D16D
:101760001A6822F400521204120C1A601A6842F429
:1017700000521A60012380F85D30002380F85C304D
:101780000320704770B505460C4616462B689868CE
:1017900010F0800000D170BD621CF8D024B928463A
:1017A000BDE87040FFF7C4BFFEF766FF801B8442B0
:1017B000ECD8F4E7F7B506460C4615461F463168E7
:1017C000886820400ED0B4F5C06F05D10A7BD2B234
:1017D0008DF807209DF807306B1CF1D025B93046F5
:1017E000FFF7A6FF03B0F0BDFEF746FFC01B854222
:1017F000E5D8F4E770B513460D4616460A464FF491
:10180000C0510446FFF7D6FF28B1236E032043F0F2
:10181000200323660FE0324629462046FFF7B2FF39
:101820000028F2D133462A464FF4C0612046FFF724
:10183000C1FF0028E9D170BD70B504462B4803F004
:10184000B5FE002C4FD00023A36294F85D3003F066
:10185000FF0223B984F85C20204602F055FE0223E3
:101860002168E26884F85D300B68B2F5E06F23F020
:1018700040030B604FF0000332D91846B2F5706F89
:1018800018BFA362236B2BB9B2F5E06F8CBF0223A4
:1018900001232363A6686368A5693343266933433C
:1018A00066693343E6693343266A3343A66A3343A2
:1018B00005F400762D0C334305F004050B60636AD4
:1018C0001A43636B1A432A43024300204A60CB69E0
:1018D00023F40063CB610123206684F85D3070BD82
:1018E0004FF48050CCE7012070BD00BFF09100089C
:1018F0002DE9F3411E4690F85C3004460D46012B5D
:10190000904600F09780012380F85C30FEF7B4FE2B
:10191000074694F85D00C0B2012840F08980002D90
:1019200060D0B8F1000F5DD00323A563A4F83C801C
:1019300084F85D30002323662364A4F83E80A4F875
:101940004430A4F846302365E364A368B3F5004F40
:10195000236803D11A6842F480421A601A6852065A
:1019600003D41A6842F040021A60E368B3F5E06FEE
:101970001DD8E38F9BB2F3B123689A6892074AD5CA
:10198000E28F92B2012A3ED935F8022BDA60E38F5A
:10199000023B9BB2E387ECE723689A6890071FD568
:1019A00035F8022BDA60E38F013B9BB2E387E38FCC
:1019B0009BB2002BF0D13A4631462046FFF71AFF82
:1019C000002832D1A36833B901932368DA68019201
:1019D0009B680193019B206E003018BF012001E03D
:1019E0004EB90320012384F85D30002384F85C3075
:1019F00002B0BDE8F081711CD9D0FEF73DFEC01BDE
:101A00008642D4D8EDE72A7801351A73E38F013B7B
:101A10009BB2E387ADE7002EE3D0731CA9D0FEF79D
:101A20002BFEC01B8642A4D8DBE720232366C9E730
:101A30000220D7E70220DBE77047000030B50446FC
:101A400085B0384803F0B2FD236859689A6802F0FF
:101A50004100012806D1480604D5E36C204698478A
:101A600005B030BD950703D5080601D5236DF5E710
:101A700012F4B07FF4D08D06F2D550060ED594F84E
:101A80005D000025032841D0206E40F00400206650
:101A90000095D868009098680090009895060CD53D
:101AA000206E40F0010020660020029098680290AD
:101AB000186820F0400018600298D00508D5226E02
:101AC00042F008022266002203929A680392039A67
:101AD000226E002AC4D05A6822F0E0025A60012225
:101AE00084F85D208A0718D05A68A06D22F003029E
:101AF0005A6018B10C4B0365FEF7E8FE606D0028D4
:101B0000AED0094B0365FEF7E1FEA9E70195DA685F
:101B100001929B680193019BA2E72046FFF78CFF8F
:101B20009EE700BFE09100082D1B000808B5806B00
:101B30000023A0F84630C387FFF77EFF08BD036A85
:101B400010B5046A23F00A0324F001040B43046275
:101B5000846924F0F00444EA02128261036210BD39
:101B6000036A23F0100310B503628469036A24F446
:101B7000704423F0A00344EA023243EA0113826175
:101B8000036210BD03680020DA6842F00102DA60E7
:101B90001A6842F001021A60704770477047704738
:101BA0007047704703681A69910710B504460FD54E
:101BB000DA6892070CD56FF002021A6101229B6964
:101BC0000277990700F08580FFF7E9FF002323776C
:101BD00023681A69520710D5DA6850070DD56FF0DF
:101BE000040220461A6102229B69227713F4407F87
:101BF00075D0FFF7D4FF0023237723681A691107F4
:101C00000FD5DA6812070CD56FF0080220461A616A
:101C10000422DB6922779B0767D0FFF7C0FF002310
:101C2000237723681A69D00610D5DA68D1060DD556
:101C30006FF0100220461A610822DB69227713F444
:101C4000407F58D0FFF7ABFF0023237723681A6942
:101C5000D20708D5DA68D00705D56FF00102204613
:101C60001A61FFF79AFF23681A69110608D5DA6826
:101C7000120605D56FF0800220461A6100F083F944
:101C800023681A69D00508D5DA68110605D56FF002
:101C9000800220461A6100F076F923681A6952061C
:101CA00008D5DA68500605D56FF0400220461A6163
:101CB000FFF777FF23681A69910622D5DA68920642
:101CC0001FD56FF0200220461A61BDE8104000F0D9
:101CD00059B9FFF763FF2046FFF762FF76E7FFF78A
:101CE0005DFF2046FFF75CFF85E7FFF757FF2046C3
:101CF000FFF756FF93E7FFF751FF2046FFF750FF2E
:101D0000A2E710BD304A0368904212D0B0F1804F74
:101D10000FD0A2F57C4290420BD002F58062904237
:101D200007D002F58062904203D002F578429042DB
:101D30001DD14A6823F070031343234A904204D113
:101D400023F44073CA68134328E0B0F1804FF7D002
:101D50001E4A9042F4D002F580629042F0D002F523
:101D600080629042ECD002F578429042E8D0184A66
:101D70009042E5D002F580629042E1D002F58062A7
:101D80009042DDD0A2F598329042D9D002F580621F
:101D90009042D5D002F580629042D1D04A6923F0BA
:101DA0008003134303608B68C3620B688362064B36
:101DB000984206D003F58063984202D00123436124
:101DC00070470B690363F9E700000140000400401D
:101DD0000040014010B50446A0B190F83D3003F03A
:101DE000FF021BB980F83C2002F03EFC0223206871
:101DF000211D84F83D30FFF785FF0123002084F882
:101E00003D3010BD012010BD10B50A43846842EA80
:101E1000032324F47F442343836010BD90F83C30B7
:101E2000012B10B504464FF0020018D084F83D0095
:101E30000123206884F83C3082683E4B1340836065
:101E40000B68402B59D015D8102B67D008D8002B21
:101E50005ED00123002084F83D3084F83C0010BDA2
:101E6000202B61D0302BF4D1836823F0700343F032
:101E7000370326E0702B26D00ED8502B32D0602BA3
:101E8000E7D1CA684968FFF76BFE2268936823F0C0
:101E9000700343F0670323E0B3F5805F0CD0B3F524
:101EA000005FD6D1CB684A688968FFF7ADFF22682A
:101EB000936843F4804313E0836823F4803323F072
:101EC00007038360C5E7CB684A688968FFF79CFF12
:101ED0002268936823F4803323F0770343F0770379
:101EE0009360B6E7CA684968FFF729FE22689368DD
:101EF00023F0700343F05703F2E7CA684968FFF71D
:101F00001EFE2268936823F0700343F04703E7E75F
:101F1000836823F0700343F00703D2E7836823F05C
:101F2000700343F01703CCE7836823F0700343F09A
:101F30002703C6E78800FEFF90F83C30012B30B540
:101F40001CD002680E4D5368AA42946803D005F570
:101F50008065AA4203D123F470034D682B430D68BA
:101F600023F07003896824F080042B4321435360DD
:101F70000023916080F83C30184630BD022030BD0F
:101F80000000014070477047184B07EE901A184A3E
:101F9000F8EEE76A10B51C78E02303FB04F12C236C
:101FA00003FB0013134493ED1F7AD3ED1C7AE6EE86
:101FB000877A93ED1D7AF4EEC77AC3ED1C7AF1EEC1
:101FC00010FA02D583ED1C7A06E093ED1E7AF4EE4A
:101FD000C77AF1EE10FAF5DCE0232C21634301FB14
:101FE0000030024492ED1C0A10BD00BFE80F002033
:101FF0006C020020F7B50546022001F029FB184BC2
:102000000021184E188801F029FB174BE0212C22E3
:102010001878DFF860E001FB00F4144F02FB054480
:10202000744494F86C308BB136F81530802611FB6F
:10203000006112FB05103A880521009270440822C5
:1020400094ED1C0A01F0EEFA03B0F0BD08233A88C3
:1020500036F81510064803B0BDE8F04001F0A4BA08
:10206000C8100020C00E0020E80F00206A020020E7
:10207000609600086C020020244BE0222DE9F0411C
:102080001B780446224E5A431223224D03FB0022A2
:10209000214B134493F8247037B393F82570022032
:1020A00097B101F0D5FA1D4B0021188801F0D6FA3E
:1020B0003288062335F81410C2F1F002184892B2A3
:1020C000BDE8F04101F070BA01F0C2FA154B394693
:1020D000188801F0C3FA3288062335F81410C2F1CB
:1020E000F002114892B2EBE7022001F0B1FA0B4B7B
:1020F0003946188801F0B2FA3288062335F81410F0
:10210000C2F1F002094892B2DAE700BFE80F0020FE
:102110006A020020140A00206C02002068020020DD
:10212000019300084E1000200493000860960008F8
:1021300001290B4B10B50DD160B90A4A0A4C107831
:10214000E02202FB0042814092F8252022B11A6869
:1021500011431960186810BD1A6822EA0101F8E7F6
:1021600008110020E80F00206C020020094B07B581
:1021700019880020084B4FF4A0721B880090194466
:10218000C1F1780309B25B001BB201F0CDF803B0D6
:102190005DF804FB7E0E00208C080020074B1B78A6
:1021A00023B100210122084601F076BA044B93F8CE
:1021B000252002B1012201211046F5E74502002049
:1021C0006C02002008B50D4B93F8252082F0010227
:1021D00083F825200A4B62B11A6842F001021A60A6
:1021E000084B187808B9FFF747FFBDE80840FFF72C
:1021F000D5BF1A6822F00102F1E700BF6C0200208F
:1022000090080020E80F00209FED0D1A30EE410AE3
:102210009FED091BB7EEC00A08B520EE011BB2EE18
:10222000040B05F0D9FAB1EE047B20EE070BB7EEF4
:10223000C00B08BDAFF300807B14AE47E17A943F3A
:102240000000C84208B5B0B9012920D1154B164885
:102250001A78E02303FB0203914093F82500134B07
:102260001A6828B111431960BDE80840FFF796BF0E
:1022700022EA0101F7E7012813D191B90A4B93ED46
:10228000270AFFF7C1FF094B83ED010A08BD41B9D9
:10229000054B93ED1C0ABDE80840B7EEC00A02F0FA
:1022A00053BB08BDE80F00206C02002090080020FE
:1022B000184B07B51B78062B15D8DFE803F0040987
:1022C00017191B20250003B05DF804EBFFF7BABF18
:1022D00011480090A0F12C03A0F15802A0F1B80120
:1022E000B63801F005FA03B05DF804FB0B48F0E7DF
:1022F0000B48EEE703B05DF804EB01F0FDBB03B063
:102300005DF804EB01F0C0BB03B05DF804EB01F035
:1023100037BC00BFE80F002014040020F4040020A4
:10232000D405002000000000454B40F2D242454851
:102330002DE9F041444CADF5C46D1A8041F22E6593
:1023400003F034F92388AB4264D140480DF5C464EE
:1023500003F02CF94FF4C4623D49684602F05AFC80
:102360006B463C4AA2F184011846D0ED1C7A91EDEF
:102370001E7AF4EEC77AF1EE10FA08D891ED1D7AC4
:10238000F4EEC77AF1EE10FAA8BFC1ED1C7A2C3139
:102390002C309142E9D193F82510E03302F85F1C0C
:1023A00013F8A91C02F84D1C13F8971C02F83B1CEB
:1023B00013F8851CA34202F8291C02F1E002D1D1D6
:1023C000254E0024254D4FF0E00837462C6008FBD1
:1023D000046393F825200123A34032B32A681343F2
:1023E00001342B6097ED270AFFF70EFF072C85EDD0
:1023F000010AECD197ED1C0A194BB7EEC00A0EA1E9
:10240000D1E90001C3E900010DF5C46DBDE8F0415B
:1024100002F09ABA134803F0C9F84FF4C4620E49A7
:102420000B4802F0F7FB2580CAE72A6822EA03037B
:10243000D6E700BFAFF300806379D9928FF3F03F06
:1024400000400240A392000802400240BC920008F3
:1024500008400240F00200206C020020900800209A
:10246000B0100020E592000808B5054B05491A7820
:10247000054B06481A704FF4C46202F0CBFB08BD4E
:10248000E80F00206C020020044002400840024097
:102490002DE9F04704203D4E01F0DAF83C4B0021D5
:1024A0003C4C1888002501F0D9F830780C237822AC
:1024B000C0EBC000A021384F04EB4010DFF8DC80F7
:1024C000DFF8DC9001F070F8022001F0C1F82C2355
:1024D0003078E0216B4301FB0032224492F86C20FB
:1024E000002A47D001FB00303A88082338F815103D
:1024F0005C302044013501F057F8032DE7D1002569
:102500004FF01209DFF89C80DFF894A0307809FBC7
:1025100005F14FF0E00E3A880EFB0013C2F1F00215
:10252000234493F824305BB30EFB0010062392B2D1
:1025300038F8151014302044013501F035F8042D19
:10254000E4D10020FFF756FD0120FFF753FD0220E4
:10255000FFF750FD0020FFF78FFD0120FFF78CFDF6
:102560000220FFF789FD0320FFF786FDBDE8F04755
:10257000FFF77ABF08233A8838F815104846B9E7BC
:10258000062392B238F815105046D5E7E80F002020
:102590002C0F00206C02002004110020C00E00202F
:1025A00060960008140A002008490B781844072395
:1025B00090FBF3F2C2EBC202801A184490FBF3F3D3
:1025C000C3EBC303C01A0870FFF762BFE80F002017
:1025D0002DE9F84FE04C01254FF0020BDF49204672
:1025E0004FF07E574FF00008DFF8E8930026DFF841
:1025F000E8A32DED0A8B03F005F884F810B065828E
:1026000004F15C00D649B6EE008A02F0FBFFD54B20
:102610009FEDD59A04F180002367F3EE048AD34B33
:10262000FBEE04BA84F86C50F1EE0CAA6367D04B51
:10263000E767A367CF4902F0E5FFCF4904F18800BF
:102640009FEDCEBA02F0DEFF84ED279A84F8985011
:1026500004F1AC00C4F8A080C4F8A490C4F8A87039
:10266000C44902F0CFFFC64904F1B4009FEDC5AAEA
:1026700002F0C8FF84F8C460C34904F1140002F0FA
:10268000C1FF84F8245084F8255004F12600BC4989
:1026900002F0B8FF84F83660B94904F1380002F05E
:1026A000B1FF84F84860B64904F14A0002F0AAFF7D
:1026B00084F85A60B54904F1E00002F0A3FF052355
:1026C00084F8F0B004F59E70A4F8F230B04902F03E
:1026D00099FF84ED578A84F84C5104F5B070C4F822
:1026E0005081C4ED55BAC4ED568AA24902F08AFF62
:1026F000A84904F5B470DFEDA89A02F083FFA74B58
:1027000084F8785104F5C670C4F87C31A44BC4F841
:1027100088A1C4F88031A34B9649C4F8843102F0F3
:1027200071FFA14904F5CA709FEDA0CA02F06AFFCB
:1027300084ED6B8A84F8A45104F5DC7084ED6ABAE8
:10274000C4ED6CAA84ED6DAA994902F05BFF8E4935
:1027500004F1F40002F056FF84F8045184F80551A6
:1027600004F58370934902F04DFF84F8166184F8F4
:10277000176104F58C70904902F044FF84F82861D9
:1027800084F8296104F595708C4902F03BFF84F8C8
:102790003A6184F83B6104F5E070894902F032FF48
:1027A0000A2384F8D0B104F50770A4F8D23178492F
:1027B00002F028FF84ED8F8A84F82C5204F5107003
:1027C000C4F83082C4ED8DBAC4ED8E8A694902F036
:1027D00019FF704904F5127002F014FF794B84F868
:1027E000585204F51B70C4F8603284ED97CAC4EDEA
:1027F000999AC4F868A25F4902F004FF6A4904F597
:102800001D7002F0FFFE84EDA38A84F8845204F563
:10281000267084EDA2BAC4EDA4AA84EDA5AA6449E9
:1028200002F0F0FE584904F5EA7002F0EBFE84F87D
:10283000E45184F8E55104F5F3705E4902F0E2FEDC
:1028400084F8F66184F8F76104F5FC705A4902F0E7
:10285000D9FE84F8086284F8096204F20A20574914
:1028600002F0D0FE84F81A6284F81B6204F5287026
:10287000554902F0C7FE0F2384F8B0B204F53F704B
:10288000A4F8B232424902F0BDFE84EDC78A84F852
:102890000C5304F54870C4F81083C4EDC5BAC4EDF8
:1028A000C68A344902F0AEFE3A4904F54A70DFF8B0
:1028B0002CB102F0A7FE454B84EDD29A04F553707B
:1028C000C4F8443384F83853C4F83CB3C4EDD09A08
:1028D000284902F097FE344904F5557002F092FE43
:1028E00084EDDB8A84F8645304F55E7084EDDABA13
:1028F000B3EE0E8AC4EDDCAA84EDDDAA2C4902F009
:1029000081FE214904F52D7002F07CFE84F8C4524A
:1029100084F8C55204F2C620264902F073FE84F8FA
:10292000D66284F8D76204F53670234902F06AFE55
:1029300084F8E86284F8E96204F2EA201F4902F0B0
:1029400061FE84F8FA6284F8FB6204F56070204945
:1029500002F058FE142343E06C020020F9910008B5
:10296000029200080000DC43000048420000D74308
:102970000000E1430B920008109200083333333F0C
:1029800060960008CDCCCC3D179200081E9200083E
:10299000299200082E9200080000FA440000164315
:1029A0000000A0420000FA433392000800004844AF
:1029B000399200083E920008459200084B920008A8
:1029C000539200080000C8435092000800409C4504
:1029D0005A9200080000C8420000204100007A45D9
:1029E000C64904F57770A4F8923302F00BFE84F820
:1029F000EC53C4EDFC8A04F58060C4F8F483C4F899
:102A0000F893C4F8FC73BE4902F0FCFDBD4904F51F
:102A1000816002F0F7FD04F21C4384F8185404F2BC
:102A20002C4083ED008A04F58463B549C3F8008027
:102A300004F22443C3F8009004F585631F6002F09C
:102A4000E1FDB14904F2344002F0DCFDAF4A04F587
:102A5000896384F84454AA4904F58B601A6004F22F
:102A60004C43C3F800A004F58A63C3ED009A04F256
:102A70005443C3F8009002F0C5FDA54904F5657004
:102A800002F0C0FD84F8A45384F8A55304F2A630E4
:102A9000A04902F0B7FD84F8B66384F8B76304F583
:102AA0006E709D4902F0AEFD84F8C86384F8C96376
:102AB00004F2CA30994902F0A5FD84F8DA6384F87B
:102AC000DB6304F58C60964902F09CFD19238B4969
:102AD00004F2BC40A4F8723402F094FD04F59A6349
:102AE00084F8CC5404F59C6083ED009A04F2D4433E
:102AF0008349B1EE049AC3F8008004F59B63C3F8E0
:102B0000009004F2DC431F6002F07CFD854904F56F
:102B10009D6002F077FD04F2FC4384F8F85404F25F
:102B20000C5083ED009A04F5A0637549C3F800804A
:102B300004F20453C3ED008A04F5A1631F6002F0A0
:102B400061FD794904F2145002F05CFD04F5A563BF
:102B500084F8245504F5A76083ED009A04F22C5301
:102B600067491F6004F5A663C3F800A004F234535C
:102B70001F6002F047FD664904F2744002F042FD16
:102B800084F8845484F8855404F28640614902F044
:102B900039FD84F8966484F8976404F593605E497F
:102BA00002F030FD84F8A86484F8A96404F2AA4015
:102BB0005A4902F027FD84F8BA6484F8BB6404F52E
:102BC000A8605A4902F01EFD1E23594904F29C5088
:102BD000A4F8523502F016FD564A04F5B66384F89F
:102BE000AC55474904F5B8601A6004F2B453C3F811
:102BF000008004F5B763C3F800A004F2BC531F6063
:102C000002F000FD4C4904F5B96002F0FBFC04F24F
:102C1000DC534A4A04F2EC5084F8D8551A6004F5A3
:102C2000BC63474A83ED008A04F2E45334491A60D6
:102C300004F5BD63C3F800A002F0E4FC414904F2CE
:102C4000F45002F0DFFC04F5C1633F4A04F5C360B1
:102C5000C3F800B004F20C6384F8045683ED00CA94
:102C600004F5C26326491A6004F21463C3F80090A5
:102C700002F0C8FC264904F2545002F0C3FC84F868
:102C8000645584F8656504F26650304902F0BAFC78
:102C900084F8766584F8775504F5AF601E4902F034
:102CA000B1FC1E4984F8886504F28A5084F889656D
:102CB00002F0A8FC264B84F89A6584F89B65254CA5
:102CC0001E6000F057FBFFF72FFB25700135012137
:102CD0000020FFF7EDFA072DF7D11F4B01221B78DB
:102CE000062B88BF002323701C4B1A70FFF7D0FB04
:102CF000BDEC0A8BBDE8F84FFFF750BA60920008B0
:102D00000B920008649200086D92000800001644BF
:102D1000179200083E920008459200084B92000866
:102D200072920008799200087F920008849200084D
:102D300029920008000040408E92000800005C4389
:102D4000000096439592000800401C469C920008A3
:102D500008110020E80F0020044002404402002037
:102D60000A4B07B519880020094B4FF4A0721B8845
:102D700000901944C1F1780309B25B001BB200F066
:102D8000D3FA03B05DF804EBFFF782BB7E0E0020A0
:102D90008C08002038B50F4C0F4D227882F00102CC
:102DA00022708AB1FFF7E2F92B6843F000432278E2
:102DB0002B6002B101224FF480510848FDF742FF19
:102DC000BDE83840FFF7EAB9FFF7CAFF2B6823F0E8
:102DD0000043ECE745020020900800200014024068
:102DE000F0B50F4C0129DDF814E0069F079E089D01
:102DF00020704FF00000A2700A4A6170D0704FF04E
:102E000018020CBF636063606423C4F808E0E760E5
:102E10002661656102490448BDE8F040FEF768BDDF
:102E200090100020900800204009002030B5044692
:102E300085B0FFF7A9F810EE105A2046FFF7DAF830
:102E4000074B00211878074B1A682B460392029211
:102E5000019200922246FFF7C3FF05B030BD00BFCC
:102E6000E80F0020E40F00202DE9FF41194D122743
:102E70004FF0E008184E47432B78044608FB0373D5
:102E8000334493F8252082F0010283F82520FFF7D0
:102E9000F3F801212046FFF7D5F901212046FFF77D
:102EA00047F97CB90D4B1B680D4A0121287812683F
:102EB00003920292019200922246FFF791FF04B022
:102EC000BDE8F0812B7808FB03773E4496F8253067
:102ED000EAE700BFE80F00206C0200200811002084
:102EE000E40F002013B502AC00224FF4007104F887
:102EF000010D0648FDF7A6FE4FF47A730122214624
:102F00000348FEF7F5FC02B010BD00BF0008024008
:102F1000C80E002013B502AC01224FF4007104F872
:102F2000010D0648FDF78EFE4FF47A73012221460B
:102F30000348FEF7DDFC02B010BD00BF00080240F0
:102F4000C80E002070B5012205464FF400710A48F2
:102F5000FDF778FE094C01224FF47A732046A91838
:102F6000FEF7C6FC294620464FF47A730122BDE8DD
:102F70007040FEF7BDBC00BF00080240C80E002034
:102F8000F8B505460D4E0C4601226F1C4FF400713A
:102F90000B48FDF757FE04B9F8BD4FF47A730122D0
:102FA00039463046FEF7A4FC4FF47A7301222946D5
:102FB0003046013CFEF79CFCEDE700BFC80E002048
:102FC0000008024038B5954C01224FF48071944DB1
:102FD0002046FDF737FE6420FDF754FB00224FF436
:102FE00080712046FDF72EFE6420FDF74BFB012289
:102FF0004FF480712046FDF725FE6420FDF742FB6B
:10300000002204212846FDF71DFE6420FDF73AFB4F
:10301000CB20FFF767FF3920FFF77CFF2C20FFF75D
:1030200079FF0020FFF776FF3420FFF773FF0220BF
:10303000FFF770FFCF20FFF755FF0020FFF76AFF73
:10304000C120FFF767FF3020FFF764FFE820FFF79C
:1030500049FF8520FFF75EFF0020FFF75BFF782028
:10306000FFF758FFEA20FFF73DFF0020FFF752FF70
:103070000020FFF74FFFED20FFF734FF6420FFF73C
:1030800049FF0320FFF746FF1220FFF743FF81208F
:10309000FFF740FFF720FFF725FF2020FFF73AFF5B
:1030A000C020FFF71FFF0920FFF734FFC120FFF703
:1030B00019FF1020FFF72EFFC520FFF713FF3E205A
:1030C000FFF728FF2820FFF725FFC720FFF70AFF9B
:1030D0008620FFF71FFF3620FFF704FFFC20FFF7D5
:1030E00019FF3A20FFF7FEFE5520FFF713FFB1202E
:1030F000FFF7F8FE0020FFF70DFF1820FFF70AFF8B
:10310000B620FFF7EFFE0820FFF704FF8220FFF74D
:1031100001FF2720FFF7FEFEF220FFF7E3FE00206D
:10312000FFF7F8FE2620FFF7DDFE0120FFF7F2FE95
:10313000E020FFF7D7FE0F20FFF7ECFE3120FFF76E
:10314000E9FE2B20FFF7E6FE0C20FFF7E3FE0E2042
:10315000FFF7E0FE0820FFF7DDFE4E20FFF7DAFE66
:10316000F120FFF7D7FE3720FFF7D4FE0720FFF747
:10317000D1FE1020FFF7CEFE0320FFF7CBFE0E207E
:10318000FFF7C8FE0920FFF7C5FE0020FFF7C2FECB
:10319000E120FFF7A7FE0020FFF7BCFE0E20FFF79F
:1031A000B9FE1420FFF7B6FE0320FFF7B3FE11208F
:1031B000FFF7B0FE0720FFF7ADFE3120FFF7AAFEB4
:1031C000C120FFF7A7FE4820FFF7A4FE0820FFF765
:1031D000A1FE0F20FFF79EFE0C20FFF79BFE312083
:1031E000FFF798FE3620FFF795FE0F20FFF792FEBF
:1031F0001120FFF777FE01224FF480712046FDF782
:1032000021FD2920FFF76EFE2C20FFF76BFE2846DC
:1032100001220421BDE83840FDF714BD000802403A
:10322000000C024007B5ADF806002A20ADF80410E6
:10323000ADF80220ADF80030FFF754FE0DF10600A6
:10324000FFF780FE0DF10200FFF77CFE2B20FFF759
:1032500049FE01A8FFF776FE6846FFF773FE2C20B3
:10326000FFF740FE03B05DF804FB0000F8B50C4624
:10327000154607460022042113481E46FDF7E2FCCE
:10328000A1B2002DB8B206F1FF3201F1FF3310DD1B
:1032900002442B4492B29BB2FFF7C4FF05FB06F138
:1032A00006A8FFF76DFE012204210748FDF7CAFCBE
:1032B000F8BD024429449BB289B292B2FFF7B2FF33
:1032C00069427143ECE700BF000C0240F8B50446C8
:1032D0000E4615461F46002204211248FDF7B2FC97
:1032E0007B1EA0B2002DB1B200F1FF320B440FDD06
:1032F0002A449BB292B2FFF795FF05FB07F106A89F
:10330000FFF73EFE012204210648FDF79BFCF8BDB5
:1033100028449BB292B280B2FFF784FF694279439E
:10332000EDE700BF000C02402DE9F041104E904641
:103330001F4604460D46304600220421FDF782FC5C
:103340007B1EA0B208F1FF32A9B202440B4492B234
:103350009BB2FFF767FF08FB07F106A8FFF710FE17
:10336000012204213046FDF76DFCBDE8F08100BF6D
:10337000000C02402DE9F7433C4B0F224FF0A00810
:103380004FF6FF741A802D22394B00254FF0460965
:1033900003271A803522374B0126294628461A80F2
:1033A00040F20B12A3F802809A802822324B1A8036
:1033B00078225A80C8229A804FF48C72DA804AF6BA
:1033C0003F622E4B1C802E4B1A804DF2F8722D4B13
:1033D0001A804FF638622C4B1A804FF4A0722B4B98
:1033E0001D802B4BA3F800902A4B1F802A4B1E8078
:1033F000F0230095FFF798FF3B46284600944FF4D2
:10340000A072AA21FFF762FF3B4649462846009476
:103410004FF4A072FFF75AFF3346294600943C222E
:103420006A20FFF723FF3346294600943C22D4202C
:10343000FFF71CFF334600946FF03B02F021502051
:10344000FFF714FF3346404600946FF03B02F02133
:10345000FFF70CFFF02133466FF03B020846009463
:10346000FFF704FF03B0BDE8F08300BF04110020A4
:103470006A020020C00E0020140A00202C0F002039
:10348000C8100020680200204E1000204C100020C0
:103490007E0E00208C0800207C0E00202DE9F347D2
:1034A0000E469DF82C5014468046002204212548E3
:1034B0001F46FDF7C7FB4FF00109B1B2AAB21FFAD0
:1034C00088F001EBC20302EB4202013B00EB420237
:1034D0009BB2013A92B2FFF7A5FE1B4A04EB8403AC
:1034E000082402EB030A4FF0000819E000261AF83E
:1034F0000630013629460DF1060019EA030F0ABF0E
:10350000BDF82830ADF80670ADF80630FFF738FD8D
:10351000052EECD108F1010829460AA8FFF730FD75
:10352000A845E3D1013C4FEA4909A4B25FFA89F901
:10353000002CD8D1012204210248FDF783FB02B000
:10354000BDE8F087000C0240089300080A280246F4
:1035500073B51049104D114C08D10B882A8803EB24
:10356000C2030B800023238002B070BD2E780C4B69
:10357000B1F900101B8801960A4EB4F90000368894
:103580000096FFF78BFF2B88228803EB430302EBA7
:103590004303E8E70C110020101100200E11002059
:1035A0001411002012110020F8B51C461A4B0546D4
:1035B00000271B8803EB4306A2EB8302174B16FB85
:1035C00004F61A80891B164E3180FCF739FE201A4A
:1035D0000223C0B246B296FBF3F6801B44B2B74258
:1035E0000ADB2E462846FCF72BFE731B984208D8B0
:1035F0000025A5420ADBF8BD20200137FFF7A6FF12
:10360000EDE716F8010BFFF7A1FFEBE720200135EE
:10361000FFF79CFFEDE700BF101100200C11002008
:103620000E110020B7EEC07A014630B585B01546C0
:103630001C46684653EC172B01F0C0FF2B46BDF823
:10364000202021466846FFF7AFFF05B030BD0000DF
:10365000014B1880704700BF10110020024B1880EA
:10366000024B1980704700BF141100201211002076
:103670006423C1EB8111C2EB4212C0EB401091FBFD
:10368000F3F192FBF3F290FBF3F042EA411242EACB
:10369000C02080B27047000070B506460D46124843
:1036A000202114460022FDF7CDFA002240210E48C9
:1036B000FDF7C8FA002280210B48FDF7C3FA26B1B6
:1036C000012220210848FDF7BDFA25B10122402141
:1036D0000548FDF7B7FA34B1012280210248BDE860
:1036E0007040FDF7AFBA70BD00000240000000005E
:1036F00092ED007AB2EE040BDFEDDF7A87EE271A47
:1037000070B52DED108B82B00D4604461E46B7EE07
:10371000C11A04F061F8D94B96ED007AB0EE408BF7
:10372000D3ED007A87EE279A9FEDD17BB7EEC99A49
:1037300029EE079BB0EE490B03F066FFB0EE40FBAD
:10374000B0EE490B03F09CFF169B93ED007A2B78AB
:1037500037EE077AB7EEC77A80EE07DB042B40D846
:10376000DFE813F0050043006300A2002101B7EE7B
:10377000007B2288B6EE004BC14B37EE4F3B03EB8C
:1037800082023DEE076B23EE044B84EE065B83EE74
:10379000064BB7EEC55B82ED005A2288B7EEC44BEC
:1037A00003EB820282ED014A228837EE4DDB03EB08
:1037B00082028DEE067B82ED025A2288B8EE005B13
:1037C00003EB82022FEE05FB8FEE065BB7EEC77BA5
:1037D000B7EEC55B82ED035A228803EB820383EDCB
:1037E000047A02B0BDEC108B70BDB7EE007B22886E
:1037F000B6EE003BA24B3FEE074B03EB82023DEEE1
:10380000076B24EE033BB1EE444B83EE065B84EE84
:10381000063BB7EEC55B82ED005A2288B7EEC33B8C
:1038200003EB820282ED013ABEE78DEE083B22886F
:10383000934B03EB8202B7EE007BB0EE474BB0EE4A
:10384000472BA8EE0D4BA8EE4D2B33EE076B37EE52
:10385000437B84EE065B82EE064BB7EEC55B82EDE2
:10386000005AB8EE005B2288B7EEC44B2FEE05FB82
:1038700003EB82028FEE065BB7EEC55B82ED015A69
:10388000228803EB820282ED024A228803EB820245
:1038900082ED035A87EE065B228803EB8203B7EEC4
:1038A000C55B83ED045A9CE7B7EE009B744DB0EE08
:1038B000480B04F0C5F8B1EE4F6B38EE09CB268803
:1038C00038EE499B30EE000B05EB8606B0EE4CBBA4
:1038D000B0EE4CABAFEE09BBA6EE09AB8DED006BC5
:1038E000B0EE4BEBADEE00EBB0EE480B04F0A8F8F9
:1038F000B0EE4A5B30EE000B9DED006BADEE005B71
:10390000B0EE480BB1EE4DDB25EE085B85EE0E7B8D
:10391000B7EEC77B86ED007AB0EE497B2388A6EE32
:103920000C7B05EB8303B0EE476B38EE087B26EE8D
:10393000076B86EE0E7BB7EEC77B83ED017A268898
:1039400004F07EF830EE000BAFEE0C9B023605EB78
:103950008606ADEE00AB2AEE08AB8AEE0E7BB7EE24
:10396000C77B86ED007AB8EE007B238829EE079BA3
:1039700005EB830389EE0E7BB0EE480BB7EEC77BF9
:1039800083ED037A248804F05BF830EE000B0434F6
:10399000ADEE00BB05EB84058BEE0E7BB7EEC77B6F
:1039A00085ED007A1DE7B7EE009B354DB1EE4F7BFC
:1039B000B0EE480B38EE09CB38EE499BB0EE4CBB6D
:1039C000B0EE4CABA7EE09BB8DED007B04F038F8F0
:1039D000AFEE09AB268805EB860630EE000BB0EEA5
:1039E0004BEBADEE00EBB0EE480B04F029F8B0EE77
:1039F0004A5B30EE000BADEE005BB0EE480BB1EE73
:103A00004DDB25EE085B85EE0E6BB0EE495BAFEE4D
:103A10000C5BB7EEC66B86ED006AB8EE006B2388D0
:103A200028EE066B05EB830326EE056B86EE0E5B38
:103A3000B7EEC55B83ED015A268804F001F830EE3D
:103A4000000B0236ADEE00AB05EB86069DED007B6C
:103A5000A7EE0C9B2AEE08AB8AEE0E6B39EE099BA3
:103A6000B7EEC66B86ED006A238805EB830381E71A
:103A7000182D4454FB21194000002042080000206A
:103A80009008002000000000174BE02110B51A78C4
:103A9000164B01FB0232164B92ED1C7A518AB7EE9F
:103AA000C77AD2F89C4003EB81009FED0D6B8460D8
:103AB00027EE067BB7EEC77BF7EE007A80ED007A43
:103AC00037EEC77AF2EE047A80ED017A92ED327A1F
:103AD00077EEC77AC0ED037A10BD00BFAFF3008068
:103AE0007B14AE47E17A843FE80F00206C0200208F
:103AF00090080020000000001D4BE0211A781D4BAB
:103B000001FB02321C4B92ED1C7A518AB7EEC77A48
:103B100003EB81009FED126B27EE067BB7EEC77BB0
:103B2000F7EE007A80ED007A37EEC77A80ED017A01
:103B300092ED277AB7EEC77A27EE067B9FED0A6BE8
:103B4000B7EEC77B80ED027A92ED327AB7EEC77A94
:103B500027EE067BB7EEC77B80ED037A704700BF88
:103B60007B14AE47E17A843FFCA9F1D24D62503F0D
:103B7000E80F00206C0200209008002000000000E8
:103B8000F0B5394EE022394DF7EE007A337887B040
:103B9000374F02FB0353374A93ED1C6A5C8AE6EE0B
:103BA000067A02EB8401B7EEC66A9FED2D5BC1ED8C
:103BB000007AB7EE087BA6EE457BB7EEC77BD3ED68
:103BC000277A81ED017A97ED007AF4EE477AF1EEEB
:103BD00010FA15D0A31C03AA0DF109010DF10A007A
:103BE000ADF80A300123CDED047A8DF80930224B6F
:103BF0000393224B059305AB009304ABFFF778FDCD
:103C0000E022337802FB0353D3F89C20D3ED327AC1
:103C10003A601B4F97ED007AF4EE477AF1EE10FA16
:103C200015D00023073403AA0DF109018DF80930DE
:103C30000DF10A00104BADF80A4003930F4BCDED88
:103C4000047A059305AB009304ABFFF751FD33787D
:103C5000E02202FB0355D5F8C8303B6007B0F0BD49
:103C60009A9999999999B93FE80F00206C02002020
:103C7000C410002090080020000020C13333333FDF
:103C8000E00F00202DE9F74F01233E4D00243E4A6E
:103C90002B704FF400473D4B40204FF480463C4989
:103CA0001C70A9463B4B8846DFF810A11C703A4BAC
:103CB00051601C70394BC2F814A01360384BD161AD
:103CC0009F80102758801D46DF80364F3648176189
:103CD00004271E801F814FF400579060D0605F81E1
:103CE000906102209E811646304FD8812A1906EB3A
:103CF0004403295B56F8140001920093FCF79CFFE3
:103D0000019A4000009B518878705868FCF794FF36
:103D10007B78295B1843787056F81400FCF78CFF09
:103D20007B78295B43EAC000787056F814000434AD
:103D3000FCF782FF7B78102C43EA800007F8010F24
:103D4000D4D11B4B4FF480601A4A012158801A4885
:103D5000198090604FF400409980D8804FF4006043
:103D6000598118810023C2F80080C2F80480C2F88B
:103D70000CA0C2F81080C2F814A089F8003003B07B
:103D8000BDE8F08F34110020CC1000203511002048
:103D900000040240181100201F11002000180240EA
:103DA0005802002000080240001402401F110020A9
:103DB000B8100020EC10002000000240001002406B
:103DC0002DE9F84F3B4B1B78002B61D03A4E002574
:103DD0003A4FDFF81081DFF81091747807EB850B0C
:103DE00037F8251008EBC50AA40058F8350004F090
:103DF0000C047470FCF720FFBBF8021044EA400486
:103E0000DAF80400E4B27470FCF716FF20432C4A81
:103E1000C0B219F8003006F8010F137063B1294AD7
:103E2000A95C0B442849AB540122087802FA05F337
:103E300003430B70254B1A700135042DCDD1244E50
:103E40000024244DDFF8A480DFF8A490224F38F836
:103E500014104FEA840A59F82400FCF7EDFEC8B9A3
:103E6000FCF70AFC012347F824002B70337853B188
:103E70001A490122087802FA04F303430B70002365
:103E80003370124B1A70013401360135062CDED125
:103E9000BDE8F88F2B78002BE8D0FCF7EDFB104B3A
:103EA0005AF807201B8813449842DFD90123337046
:103EB0000023DAE75A1100201F11002058020020C9
:103EC00046020020501100201F1100203511002053
:103ED000191100202D110020381100201811002088
:103EE0001C000020CC1000200C000020B810002086
:103EF000EC10002070B5264C23782BBB254A117896
:103F000001B301211370244A2170117841FA03F0A2
:103F1000C5072DD50020032B1070204AD156D05450
:103F200022D10846FEF740FB1D4A0023117841FAD2
:103F300003F0C00728D50021042BD8B211701BD183
:103F4000FEF740F900232370164B1B785BB1164C2B
:103F5000257845B9154E33782BB10123237000F035
:103F600089FD3570257070BDD8B2FEF75FFFDBE7C5
:103F70000133042BCAD1D7E7052B02D1FEF70AFF84
:103F8000E0E7FEF771FFDDE70133062BCFD1D9E77C
:103F900034110020351100201F1100205011002085
:103FA00018110020450200202C11002033110020A0
:103FB0000122014B1A70704733110020384B1A6CE4
:103FC00042F0805270B51A64B8B01B6C022401260E
:103FD000042503F0805307A80093009B314B1A6817
:103FE00042F440421A601B68079603F440430D9464
:103FF0000F950193019B4FF4A023119408934FF464
:1040000080030E93D823109309231293FCF77CFEB0
:1040100018B1254801F0CAFAFEE7FCF73DFE18B1D9
:10402000214801F0C3FAFEE70F230490072102A8FC
:1040300002934FF4A053039405934FF480530693D7
:10404000FDF724F818B1184801F0B0FAFEE7174B55
:104050001C90149360231F9019930323239027909F
:10406000339014A81B941A931E96FDF7B3F80446D8
:1040700018B10D4801F09AFAFEE7FDF7A5F84FF4E4
:104080007A73B0FBF3F0FCF765FB2846FCF778FB8E
:10409000224621464FF0FF30FCF718FB38B070BDC8
:1040A000003802400070004083950008000128009D
:1040B00080B590B00024FCF7C7FA0125FFF77EFF1A
:1040C0009B4B43219B481A6B9B4F42F010029B4E27
:1040D0001A631A6B02F010020092009A1A6B42F0F7
:1040E00004021A631A6B02F004020192019A1A6B1D
:1040F00042F020021A631A6B02F020020292029A26
:104100001A6B42F080021A631A6B02F0800203926B
:10411000039A1A6B42F001021A631A6B02F0010251
:104120000492049A1A6B42F040021A631A6B02F06E
:1041300040020592059A1A6B42F002021A631A6B4A
:1041400002F002020692069A1A6B42F008021A6303
:1041500000221B6B03F008030793079BFCF772FD1B
:1041600000224FF481417648FCF76CFD4FF48073D8
:104170000BA974480B930C950D94FCF773FC042366
:104180000BA971480B930C950D94FCF76BFC4FF445
:1041900000730BA96B480B930C950D94FCF762FC14
:1041A000E0230BA969480B930C950D94FCF75AFC7E
:1041B0004FF480530BA966480B930C950D94FCF7B4
:1041C00051FC4FF400530BA95E480B93614B0D94C7
:1041D0000C93FCF747FC43230BA956480B930C9513
:1041E0000D940E94FCF73EFC4FF481430C9525464C
:1041F0000BA953480B930D940E94FCF733FCE35B2F
:1042000004EB070956F8140006EB44080BA90B93BE
:104210000C9504340D950E95FCF724FCB9F802308A
:104220000BA9D8F804000B930C950D950E95FCF78F
:1042300019FC102CE3D10025474F484E2C4637F887
:1042400015300BA956F8250001350B930C940D94ED
:104250000E94FCF707FC062DF1D1802335480BA9FD
:104260000C940B934FF482780D94FCF7FBFB3C48C5
:104270004FF4E0673B4B4FF4007684600725046100
:104280004461C46104624462846204630824C760B8
:104290008661C562446380E80801FDF7CDFA18B174
:1042A000314801F083F9FEE7304B314A98601861DC
:1042B000586118625862986218631846DF609E6100
:1042C000DD625C6383E804012822DA61FDF7B4FA59
:1042D00018B1254801F06AF9FEE7264D4FF47A73CC
:1042E0004FF08041A8602861A861284685E80A004F
:1042F0002023EB60FDF76EFD18B11B4801F056F965
:10430000FEE74FF480560BA928460B96FDF786FD75
:1043100018B1154801F04AF9FEE7089008A90A907B
:104320002846FDF709FE38B30F4801F03FF9FEE7D4
:10433000003802400018024058020020CC10002033
:104340000004024000080240000C0240000002404D
:104350000014024000001110B8100020EC100020E2
:10436000C80E0020003C0040839500084009002052
:104370000050014050100020324C42F21073324A7B
:10438000A0602061A061204684E80C004FF4C8635F
:10439000E360FDF71FFD18B12C4801F007F9FEE7B7
:1043A0000BA920460B96FDF739FD18B1274801F0FF
:1043B000FDF8FEE7089008A90A902046FDF7BCFD2D
:1043C000064618B1214801F0F1F8FEE72846FDF74E
:1043D000D9FB20461E4CFDF7D5FB1E48267001F088
:1043E000E5F81D4B1A6F42F400421A671A6B42F44B
:1043F00080221A631B6B03F480230B930B9BFCF747
:1044000027FCFCF72DFC154801F0D0F8144801F00A
:10441000CDF80A20FCF736F9FEF7D4FD0A20FCF7A8
:1044200031F9FEF7CFFD0F4801F0C0F8FEF7D0F8E4
:104430000D4801F0BBF8FFF725FC01232370FFF7BF
:1044400059FDFCE7800E0020000400408395000821
:104450005A1100208E950008003802409E950008F1
:10446000B6950008CA950008DE95000808B5024810
:1044700001F09CF8FEE700BF83950008214B07B5CB
:104480001A6C032042F080521A641A6C02F08052B7
:104490000092009A5A6C42F480425A645B6C03F4B6
:1044A00080430193019BFCF7FFF800226FF00B00A3
:1044B0001146FCF70BF900226FF00A001146FCF7D9
:1044C00005F900226FF009001146FCF7FFF8002201
:1044D0006FF004001146FCF7F9F800226FF00300BA
:1044E0001146FCF7F3F800226FF001001146FCF7CB
:1044F000EDF800224FF0FF301146FCF7E7F803B06B
:104500005DF804FB0038024070B5054688B04B48A2
:1045100001F04CF82B684A4A93421AD1494B03A93F
:1045200049481A6C42F400421A641B6C03F40043BD
:104530000093009B4FF4E053039302230493002362
:1045400005930323069306230793FCF78BFA08B021
:1045500070BD3E4A9342FAD13A4B00263C4803A92B
:104560005A6C3C4C42F480125A645B6C059603F41E
:1045700080130193019B4FF4607303930223049310
:104580000323069305230793FCF76CFA324B4FF095
:10459000806C4FF0400E2046E660E661266266625F
:1045A00084E808504FF4806323614FF40063636133
:1045B0004FF40053A361FCF70BF918B1752127489C
:1045C000FFF754FF4FF480626C65A5634FF0806382
:1045D000234C244822614FF4006284E809006261A0
:1045E00000234FF400522046A360E360A261E36120
:1045F00023626362FCF7ECF818B187211748FFF7D4
:1046000035FF104B3B20AC651A6BA56342F480026A
:104610001A6300221B6B114603F480030293029B72
:10462000FCF754F83B20FCF789F800223C201146A7
:10463000FCF74CF83C20FCF781F888E7EF95000880
:10464000003C004000380240000802400050014099
:1046500000140240EC0F002070640240FC9500083A
:104660001C0E0020586402400368B3F1804F13B55C
:10467000044612D103F50E331C2002211A6C42F0BD
:1046800001021A6400221B6C03F001030093009BDB
:10469000FCF71CF81C20FCF751F822680C4B9A42DE
:1046A00014D10C4800F082FF0B4B1D2003211A6C23
:1046B00042F002021A6400221B6C03F00203019311
:1046C000019BFCF703F81D20FCF738F802B010BD81
:1046D00000040040179600080038024008B5FBF7B8
:1046E000BFFFBDE80840FCF758B8000008B5044813
:1046F00000F05CFF0348BDE80840FDF79FB900BF2C
:104700002C9600084009002008B5FFF759FB024825
:10471000BDE80840FDF746BA5010002008B5FFF785
:1047200047FC0248BDE80840FDF73CBA800E002077
:104730000148FCF7DDB800BF1C0E00200148FCF763
:10474000D7B800BFEC0F002010B500234FF0604435
:10475000934201DB104610BDD4F8800EC00703D58C
:10476000D4F8000EC00702D40133F1E700BF20687F
:104770000028FBD0C85C2070F6E70000044B02461E
:10478000196809B903491960186802441A6070472A
:1047900048020020A81400205822024B4FF0FF309E
:1047A0001A607047A41400205822024B4FF0FF30CB
:1047B0001A607047A41400205822024B00201A608F
:1047C000704700BFA41400205822024B4FF0FF3066
:1047D0001A607047A41400205822024B4FF0FF309B
:1047E0001A607047A41400200F490020D1F88830C7
:1047F00043F47003C1F888300C4B1A6842F0010290
:104800001A6098601A6822F0847222F480321A606A
:10481000074A5A601A6822F480221A60D8604FF062
:1048200000638B60704700BF00ED00E0003802407D
:10483000103000242DE9FF474B22814664214FF0C0
:10484000FF3710469124FEF713FF3E4BB1EE046B89
:104850008246A0254FF05A0893ED005B85EE067B5B
:10486000B8FE477BFDEEC77BCDED037A9DF90C606A
:10487000424641466420FEF7FBFE0246B9F1000FB6
:1048800055D0002E13DD7B4228B250215BB29E42F0
:10489000B6BF0023009200930F231A46FEF716FDC1
:1048A000002300930F23502120B21A4612E022D099
:1048B000BE4220B24FF05001CABF002300920093C5
:1048C0000F231A46FEF702FD0023502128B2009361
:1048D0000F231A46013FFEF7F9FCA8F10A080F352D
:1048E0000F3C17F10B0F5FFA88F8ADB2A4B2BFD13D
:1048F00004B0BDE8F0877B42DBB2012B0ED10F2361
:1049000050219120CDF800A01A46FEF7DFFC0F23BE
:10491000CDF800A050211A46A020DBE70F23009617
:10492000502128B21A46FEF7D1FC0096BAE70F23B1
:10493000CDF80090502128B21A46FEF7C7FCCDF8FA
:104940000090AFE7881400209FED177B1A4A1B4B9D
:1049500020EE070B1A499FED167B2DE9004882EDEA
:10496000000B20EE070B91ED006B03F5C47183ED96
:10497000000B93ED007B27EE067B5CEC17BB92ED02
:10498000007B43F808BFC3F804C08B4226EE077BC8
:104990005CEC17BB42F808BFC2F804C0E9D1BDE81F
:1049A000008800BFAFF30080000000000000B03FAF
:1049B000B4C54827CA16EF3FF8120020681100203E
:1049C000B01000200000000008B580EE010B02F0DE
:1049D00093FE9FED057B80EE070B9FED057B20EEA0
:1049E000070B08BDAFF30080EF39FAFE422EE63F19
:1049F0000000000000C0924010B5192032220023B0
:104A00000A4CD11A012900DC10BD04EBC00191ED64
:104A1000007BB4EEC07BF1EE10FA84BF024618466C
:104A200081180346C1F34700EBE700BF681100207F
:104A300008B5FFF7E1FF0C22B0FBF2F302FB130312
:104A4000084ADBB252F82320074B1A60074B03EBEE
:104A5000C00090ED001BFFF7B7FF054B83ED000B87
:104A600008BD00BF24000020A0140020F812002080
:104A700088140020364B00B52DED048B93ED048A8D
:104A800083B0F2EE048AB7EEC89AB0EE490BFFF796
:104A9000CFFF304853EC192B00F014FD0220FEF735
:104AA000D7FD2D4B00211888FEF7D8FDB4EEE88A1B
:104AB0009B230C220521F1EE10FA00934FF0A00386
:104AC00032DDDFED267AB4EEE78AF1EE10FA2BD56F
:104AD0002348B0EE480AFEF7A5FD0520FEF7B8FD15
:104AE000204B00211888FEF7B9FDB4EEE88A0C23AC
:104AF0007822AF21F1EE10FA18DDDFED187AB4EE6E
:104B0000E78AF1EE10FA11D517480068FEF74CFD60
:104B10000120FFF78FFE154A13680133136003B0BD
:104B2000BDEC048B5DF804FB1148D2E71148FEF799
:104B30003BFDB4EEE88AF1EE10FA06DDDFED077A10
:104B4000B4EEE78AF1EE10FAE2D40020E1E700BF0C
:104B5000300F00205D960008C81000200000EB43D5
:104B6000619600082C0F0020A01400209014002053
:104B70001098000869960008DFF834D0002103E09F
:104B80000C4B5B58435004310B480C4B42189A4273
:104B9000F6D30B4A02E0002342F8043B094B9A4249
:104BA000F9D3FFF721FE00F011F8FFF781FA704703
:104BB00000000820609B0008000000202802002060
:104BC00028020020A8140020FEE7000070B50D4E5A
:104BD0000D4CA41BA4100025A54209D10B4E0C4C72
:104BE00004F0ECFAA41BA4100025A54205D170BD69
:104BF00056F8253098470135EEE756F825309847A6
:104C00000135F2E7589B0008589B0008589B0008A4
:104C10005C9B000810B5431E0A44914200D110BDB0
:104C200011F8014B03F8014FF7E7F0B52DED028BBA
:104C3000B0EE408B85B017460D9D0C9E18EE902A65
:104C400025F02005002AB6BF2D220022B1EE408BB0
:104C5000462D0C461A7004D0452D00D10134022196
:104C600000E0032103AB019302AB009322463346DD
:104C7000B0EE480B00F01CFE472D01D1FB0716D506
:104C8000462D00EB04030CD10278302A07D1B5EE93
:104C9000408BF1EE10FA1CBFC4F10104346032689D
:104CA0001344B5EE408BF1EE10FA0FD10393039B42
:104CB0000E9A1B1A136005B0BDEC028BF0BD541C9C
:104CC00003941170039A9342F9D8F0E73021F9E781
:104CD000F7B503460029B8BF494203F8022BB4BF19
:104CE0002D222B220929427020DD0DF107021746E3
:104CF0000A2691FBF6F506FB15113031092D02F855
:104D0000011C02F1FF34294609DC3031023A04F873
:104D1000011CBA421C4604D3201A03B0F0BD22463F
:104D2000E7E712F8011B03F8011BF2E730221C46EB
:104D3000114404F8022B5970EEE700000000000057
:104D40002DE9F04F8DB00C4616461F46DDF8588011
:104D5000054601F095FCD0F800B05846FBF770FA14
:104D600000230A93D8F800300590073323F0070397
:104D700003F1080194F818902268C8F80010D3E9EC
:104D80000001C4E912019FEDA07B94ED120BB0EE7F
:104D9000C06BB4EE476BF1EE10FA40F3EF81B5EE65
:104DA000C00BF1EE10FA02D52D2384F84330984B56
:104DB0009849B9F1470F8CBF8846984622F0040203
:104DC0000323236122604FF0000A009733460BAAA9
:104DD0002146284600F0E0F9013040F090804FF085
:104DE000FF300DB0BDE8F08F61684B1C42F480626B
:104DF0000AA80DF1240E3CD106236360002303931F
:104E000002900DF123032260CDF80490CDF800E06C
:104E100061682846FFF709FF09F0DF03472B80464A
:104E200009D1099BD81C02DB6268934254DDA9F1C9
:104E300002095FFA89F9B9F1650F099931D8013989
:104E40004A4604F150000991FFF742FF0A9A83187D
:104E5000012A8246236102DC2268D10701D5013391
:104E600023619DF82330002BAFD02D2384F84330ED
:104E7000ABE7B9F1670F02D0B9F1470FBED171B1FD
:104E80000023039302902260CDF80490CDF800E057
:104E90000DF123032846FFF7C8FE8046C1E7012332
:104EA000ABE7B9F1660F19D1002963680CDD216108
:104EB00013B92268D20702D501330B442361099B41
:104EC000A3654FF0000ACCE713B92268D00701D5DB
:104ED0000233F3E70123F1E74FF06709099B0A9AD0
:104EE000934205DB22682361D107E8D50133E5E76A
:104EF000002BD4BFC3F1020301231344DEE7236870
:104F00005A0507D42369424631462846B84701303E
:104F10002AD164E7B9F1650F40F2E58094ED127B88
:104F2000B5EE407BF1EE10FA3CD101233A4A31460E
:104F30002846B84701303FF452AF0A9B099A9A427B
:104F400002DB2368D8070FD5059B5A463146284611
:104F5000B84701303FF443AF4FF0000804F11A099D
:104F60000A9B013B984512DB23689B0709D54FF04C
:104F7000000804F11909E3680B9A9B1A9845C0F2DE
:104F8000F280E0680B9B9842B8BF184629E70123DE
:104F90004A4631462846B84701303FF420AF08F171
:104FA0000108DDE7099B002B38DC01231A4A314652
:104FB0002846B84701303FF412AF099B23B90A9B3A
:104FC00013B92368D907CFD5059B5A4631462846E1
:104FD000B84701303FF403AF4FF0000904F11A0A5B
:104FE000099B5B42994501DB0A9B8CE701235246F2
:104FF00031462846B84701303FF4F1AE09F10109C6
:10500000EEE700BFAFF30080FFFFFFFFFFFFEF7F82
:105010006B9600086F9600087B9600080A9AA36DAD
:105020009A42A8BF1A46002A914638DC04F11A03B6
:105030004FF0000A29EAE9790793A36D0693A3EBE1
:1050400009039A4533DB0A9B099A9A423ADB2368A3
:10505000DA0737D40A9B069A09999A1AA3EB010931
:105060009145A8BF9146B9F1000F33DC4FF000081D
:1050700029EAE97904F11A0A099A0A9B9B1AA3EB17
:1050800009039845BFF670AF0123524631462846C2
:10509000B84701303FF4A3AE08F10108ECE713462E
:1050A000314642462846B8470130BFD197E6012332
:1050B000079A31462846B84701303FF490AE0AF1CE
:1050C000010ABAE7059B5A4631462846B8470130DF
:1050D000C0D184E6069A4B46424431462846B8473A
:1050E0000130C3D17BE60A9A012A01DCDB0737D500
:1050F0000123424631462846B84701303FF46FAE9F
:10510000059B5A4631462846B84701303FF467AE02
:1051100094ED127BB5EE407BF1EE10FA0BD14FF01F
:10512000000804F11A090A9B013B98450DDB534620
:1051300004F15002E8E60A9B08F10102013B314606
:105140002846B8470130F2D149E601234A463146A4
:105150002846B84701303FF442AE08F10108E2E7C3
:1051600001234246EBE701234A4631462846B84729
:1051700001303FF434AE08F10108FCE6B4EE400B18
:10518000F1EE10FAFFF530AE014B024911E600BF17
:1051900073960008779600082DE9F04791461F4660
:1051A0008A680B69DDF820809342B8BF1346C9F8BE
:1051B000003091F8432006460C4612B10133C9F87D
:1051C00000302368990642BFD9F800300233C9F88D
:1051D0000030256815F0060507D104F1190AE368C7
:1051E000D9F800209B1A9D4229DB94F843302268AD
:1051F000003318BF012392062ED404F1430239462E
:105200003046C047013021D02368E568D9F8002036
:1052100003F00603042B08BFAD1AA36822690CBF74
:1052200025EAE57500259342C4BF9B1AED184FF09F
:1052300000091A344D451BD10020BDE8F087012339
:10524000524639463046C047013003D14FF0FF3057
:10525000BDE8F0870135C2E7E1185A1C302081F81B
:105260004300224494F8451082F843100233C4E707
:105270000123224639463046C0470130E6D009F1C5
:105280000109D7E72DE9F04317460A7E85B06E2A5B
:10529000984606460C460C9B01F1430E00F0BC807C
:1052A0001AD8632A2ED00AD8002A00F0C880582ABB
:1052B00000F08A8004F1420584F842202AE0642A42
:1052C00001D0692AF6D121681A6811F0800F23D025
:1052D000111D1960136827E0732A00F0B48008D804
:1052E0006F2A2AD0702AE5D10A6842F020020A60AB
:1052F00003E0752A21D0782ADCD1782284F8452071
:105300006E4964E01A6801F14205111D19601368C5
:1053100084F842300123A3E011F0400F02F10401B0
:105320001960D7D0B2F90030002B03DA2D225B428E
:1053300084F8432062490A2217E02068196810F0B7
:10534000800F03D0081D18600B6806E010F0400FB6
:1053500001F104001860F7D00B8859496F2A14BF77
:105360000A220822002084F843006568A560002D09
:10537000C0F29C80206820F004002060002B3FD108
:10538000002D40F095807546082A0BD12368DA0776
:1053900008D5236962689A42DEBF302305F8013CD4
:1053A00005F1FF35AEEB05032361CDF800803B46E8
:1053B00003AA21463046FFF7EFFE013055D14FF0EA
:1053C000FF3005B0BDE8F08381F845203C492268F4
:1053D000186812F0800F00F104051D6001D0036809
:1053E00002E05506FBD50388D00744BF42F02002F7
:1053F00022601BB9226822F0200222601022B1E74D
:105400007546B3FBF2F002FB1033CB5C05F8013DAF
:1054100003460028F5D1B7E708681A68496910F013
:10542000800F04D0101D18601368196007E010F099
:10543000400F02F1040018601368F6D019800023B1
:1054400023617546B1E71A68111D19601568626815
:1054500000212846FAF7FCFE08B1401B6060636833
:105460002361002384F843309FE723692A463946A5
:105470003046C0470130A2D023689B0707D50025DE
:1054800004F11909E368039A9B1A9D4205DBE06861
:10549000039B9842B8BF184693E701234A46394612
:1054A0003046C04701308AD00135EBE7002BA7D149
:1054B0000B7884F8423004F1420565E78E960008C7
:1054C0007D9600080FB40A4B13B51C6824B1A3697C
:1054D00013B9204601F04AF805AB049AA16801937C
:1054E000204601F053FE02B0BDE8104004B0704702
:1054F0005400002070B50E46054618B183690BB9FB
:1055000001F034F8AB69AC6813B9284601F02EF805
:10551000234B9C4217D16C68A3891B071DD52369B7
:10552000DBB1013EA36816F8011F013BA360E9B996
:10553000002B2EDA22460A21284600F06BF80130B3
:1055400011D00A2070BD174B9C4201D1AC68E3E733
:10555000154B9C4208BFEC68DEE72146284600F068
:10556000ABF80028DDD04FF0FF3070BD002B04DA1F
:10557000A269934206DB0A2904D023685A1C2260E0
:105580001970CFE72246284600F044F80130C9D10F
:10559000E9E723680A205A1C2260187070BD00BF1A
:1055A000CC960008EC960008AC960008024B014629
:1055B0001868FFF79FBF00BF540000200EB400B56D
:1055C0009CB04FF402711DABADF814100290069020
:1055D0006FF000410A48049107914FF6FF7153F8AC
:1055E000042BADF816100068019302A901F0B0FC7D
:1055F000029B00221A701CB05DF804EB03B07047E8
:1056000054000020034611F8012B03F8012B002A57
:10561000F9D17047F8B50E461446054618B18369AE
:105620000BB900F0A3FF214B9C422AD16C68A369FF
:10563000A360A3891A072ED5236963B32369206861
:10564000C01A6369F6B29842374604DB2146284601
:1056500000F022FF28BBA368013BA36023685A1C0B
:1056600022601E7063690130984204D0A389DB0771
:1056700019D50A2E17D12146284600F00DFF90B10A
:105680000FE00B4B9C4201D1AC68D0E7094B9C4228
:1056900008BFEC68CBE72146284600F00DF800284B
:1056A000CCD04FF0FF373846F8BD00BFCC9600088D
:1056B000EC960008AC960008324B70B51D680646A3
:1056C0000C4625B1AB6913B9284600F04FFF2E4BAD
:1056D0009C420FD16C68B4F90C309AB215072CD4E7
:1056E000D00611D40922326043F04003A3814FF069
:1056F000FF3070BD254B9C4201D1AC68EBE7244BD9
:105700009C4208BFEC68E6E7510712D5616B41B1D6
:1057100004F14403994202D0304601F011FB00230A
:105720006363A38923F02403A381002363602369B7
:105730002360A38943F00803A38123694BB9A3899C
:1057400003F42073B3F5007F03D02146304600F008
:10575000C9FFA28912F001030CD00023A360636982
:105760005B42A361236953B9B4F90C3013F0800094
:10577000BAD170BD920758BF6369A360F2E70020F9
:10578000F7E700BF54000020CC960008EC96000814
:10579000AC9600082DE9F74F03690C699C428046DE
:1057A00000F38280013C01F114074FEA840E00F1FE
:1057B000140657F8245056F8240006EB0E03013562
:1057C00007EB0E090193B0FBF5F595B34FF0000A16
:1057D0003846B446D34650F8042B93B205FB03A3D6
:1057E0004FEA134A9BB2ABEB0303120CBCF800B0B8
:1057F00005FB02A213FA8BF34FEA124A1FFA82FB4F
:10580000DCF80020CBEB124202EB23429BB243EACE
:10581000024381454FEA224B4CF8043BDBD256F859
:105820000E3033B9019B043B9E421A4630D3C8F870
:105830001040404601F0AFF9002825DB0135304625
:105840004FF0000E57F8042BD0F800C093B2AEEB27
:105850000303120C13FA8CF3C2EB1C4202EB23423B
:105860009BB243EA0243B9454FEA224E40F8043B5B
:10587000E8D256F8242006EB84032AB9043B9E4262
:105880001A460BD3C8F81040284603B0BDE8F08F85
:105890001268043B002ACAD1013CC5E71268043BE8
:1058A000002AEFD1013CEAE70020EEE7000000000B
:1058B0002DE9F04F57EC106B95B0CDE90067466AC3
:1058C000079105460B9210931E9C3EB9102000F0E4
:1058D00049FF6862466086600660C6606B6A196848
:1058E00051B15A684A60012393408B60284600F00A
:1058F0007DFF6B6A00221A60019B002BBFBF012352
:105900002360019B23F00043B2BF01930023236077
:10591000019C734BA34318D1109A42F20F7313608A
:10592000009B23B9C4F31304002C00F018851F9BBF
:105930003BB96C4B1DE06C4B049308331F9A13600A
:10594000A6E2684B04930333F8E79DED007BB5EEC8
:10595000407BF1EE10FA8DED047B0CD1109A0123FF
:1059600013601F9B002B00F0F784604B1F9A13609D
:10597000013B04938CE213A912AA9DED040B284667
:1059800001F081F9C4F30A5103901298002946D01E
:10599000DDE90423C3F3130444F07F53A1F2FF3A7B
:1059A00043F44013002107EE90AA43EC162BB8EE07
:1059B000E75B9FED454BB7EE087B36EE477B9FEDEF
:1059C000446BA7EE046BB0EE467B9FED436BA5EEF8
:1059D000067BFDEEC76BB5EEC07BF1EE10FA1191C0
:1059E00016EE90BA08D5B8EEE66BB4EE467BF1EE53
:1059F00010FA18BF0BF1FF3BBBF1160F31D83C4B2F
:105A000003EBCB0393ED007B9DED006BB4EEC67B07
:105A1000F1EE10FA01DD0BF1FF3B002322E01399B8
:105A2000014401F23243202B15DD009E01F21242A7
:105A3000C3F1400326FA02F204FA03F31A4307EE15
:105A4000902AB8EE677B01F1FF3A53EC172B012146
:105A5000A3F1F873A7E7C3F12002009B03FA02F257
:105A6000EDE70123A0EB0A0ABAF1010746BFCAF12C
:105A7000010A00274FF0000ABBF1000F0D93BCBFD5
:105A800000230C93079BA3BFCDF830B05F444FF0C9
:105A90000008AAEB0B0AB8BFCBF10008092B00F2F3
:105AA000F880052BC4BF043B0793079BA3F10203B7
:105AB000CCBF00240124032B00F2F780DFE813F0B1
:105AC000E500E7001A00D90061436F63A787D23F62
:105AD000B3C8608B288AC63FFB799F501344D33FDD
